:040000008A15BC2D74
:08000800FF00030E8312031731
:1000100094000A0E9500040E96008A150A12E82D27
:10002000DE08031D142808000430FF3E031D1528B8
:100030000000DE0B14280800B708031D2028080064
:10004000F9300000000000000000FF3E031D2128E1
:1000500000000000000000000000B70B202808008E
:10006000831203130C1C0800FF3083164F02031881
:100070003B28CF0A5128CF01FF30500203184228F5
:10008000D00A5128D001FF30510203184928D10A63
:100090005128D101FF30520203185028D20A5128AA
:1000A000D20183120317A70A03130C1008000313CD
:1000B00085100317EB01EC018313C83084006B0833
:1000C00084070008ED000313941303176D0803134E
:1000D0009300941F6D28851E6328941F8028043088
:1000E0000317EE006E03031D7A28013083160313F5
:1000F000DB0080286E0883160313DB0483120514CB
:1001000083120317EB0A83160313141C1529831398
:10011000DC308400831203176C0884070313130870
:100120008000141FA528141302300317ED006D037F
:10013000031D9F28013083160313DB00A5286D08DB
:1001400083160313DB048312051414308312031780
:100150006C020318AD28EC0ABE280830ED006D03D0
:10016000031DB728013083160313DB0008006D0858
:1001700083160313DB048312051408008313C830AD
:1001800084006B0884070008ED0003139413031721
:100190006D0803139300941FCF28851EC528941F54
:1001A000E22804300317EE006E03031DDC28013043
:1001B00083160313DB00E2286E0883160313DB04A7
:1001C000831205141430831203176B0203180C29D1
:1001D0006A03031DFF286B08133A031DFF28013033
:1001E000ED006D03031DF928013083160313DB00B6
:1001F000FF286D0883160313DB0483120514831391
:10020000C8308400831203176B08840700080313A7
:1002100093000317EB0A1529031385148316C801ED
:10022000C901CA01CB01831205153020851E832820
:100230008316141883280800831203138C1D0800EA
:1002400013080317A1000313141F382914130230D5
:100250000317EA006A03031D3229013083160313D2
:10026000DB0038296A0883160313DB0483120514A4
:1002700083120317A1080319562921082006031920
:1002800057291030EA006A03031D4B2901308316F9
:100290000313DB0051296A0883160313DB0483125E
:1002A0000514831203172108A0005729A001A00AF2
:1002B0002108EA005720831203172008EA000313DD
:1002C000941303176A0803139300941F6929851E6A
:1002D0005F29941F7C2904300317EB006B03031D77
:1002E0007629013083160313DB007C296B08831603
:1002F0000313DB048312051483128C11080083128C
:1003000003130C1F08000C130317A60A0230260261
:10031000031C8C29EA148D29EA106A10EA186A1461
:100320006A18080003139F140800E601E701E801BA
:10033000E901E001E101E201E301E40120306405AB
:10034000E500E508031D08000310E00DE10DE20DD6
:10035000E30DD80DD90DDA0DDB0DE60DE70DE80D37
:10036000E90D5F086902031DBF295E086802031DCD
:10037000BF295D086702031DBF295C086602031CD4
:10038000D0295C08E6025D08031C5D0FE7025E08E9
:10039000031C5E0FE8025F08031C5F0FE902601494
:1003A000E40A9E29DC01DD01D801D901DA0110300F
:1003B0005A05DB00DB08031D08000310D80DD90D1A
:1003C000D40DD50DDC0DDD0D57085D02031DEA29A6
:1003D00056085C02031CF3295608DC025708031C6C
:1003E000DD03DD025814DA0AD729D901DA01D91957
:1003F0000800581CFD295708DA07D80C0310D70D40
:10040000D90AF729DF01E001E101E201E501E60196
:10041000E701E801E30120306305E400E408031D7F
:1004200008000310E50DE60DE70DE80DDB0DDC0D12
:10043000DD0DDE0DDF0DE00DE10DE20D560862026F
:10044000031D2C2A55086102031D2C2A5408600242
:10045000031D2C2A53085F02031C3D2A5308DF02A8
:100460005408031C540FE0025508031C550FE10209
:100470005608031C560FE2026514E30A0B2AD70143
:10048000D801DB01DC01D90110305905DA00DA08A6
:10049000031D08000310DB0DDC0DD50DD60DD70DA7
:1004A000D80D52085802031D572A51085702031C41
:1004B000602A5108D7025208031CD803D8025B14E3
:1004C000D90A442A0313861329300317DE001020AB
:1004D000DC0108305C020318872A5B08DD005C0839
:1004E000DE000319772A0310DD0CDE03712A0130C8
:1004F000DD055D03031D7F2A03138617812A03137D
:10050000861329300317DE001020DC0A692A031342
:10051000861729300317DE0010200800CA01C80121
:1005200083133C1883173B0884004808C80A8407D3
:100530000008C900C9080319A62B4908253A031D5C
:10054000B02A83133C1883173B0884004808C80A64
:1005500084070008C900CB004B08253A031DBB2ABD
:1005600083133A188317390884004A08CA0A840793
:1005700049088000902ACD0134112030CC00490870
:10058000003A0319A62B303A0319D02A103A03195E
:10059000D32A0B3A0319D62A063A0319D92AE52A8F
:1005A0003030CC00DA2A2030CD00DA2A2B30CD00D2
:1005B000DA2A341583133C1883173B088400480853
:1005C000C80A84070008C900BF2ACE01303049029A
:1005D000031C072B4908393C031C072B4E08D70086
:1005E0000A30D800F5215A08CE004908CE0730302D
:1005F000CE0283133C1883173B0884004808C80ABE
:1006000084070008C900C9080319A62BE62A49086F
:100610006F3A0319182B0B3A03191B2B113A0319C4
:10062000242B2D3A0319272B3A3A03192A2BA62BF0
:100630000830D1002C2BC71F242B2D30CD00C6092C
:10064000C709C60A0319C70A0A30D1002C2B10307B
:10065000D1002C2B0230D100CF014608D30047082F
:10066000D400CF0A5308D5005408D6005108D10051
:10067000D2013F225B08D3005C08D400D308031DDD
:10068000312BD408031D312BCD08031DCF0AD00117
:100690004E08003C0318562B4F084E020318522BED
:1006A0004E08CF004F084E02D000592B4F08CE0005
:1006B000D001D008031934114E08CA07B4113419F7
:1006C000B415CF08031D672BD0080319A32BCA0349
:1006D000B41D702B4C08C900D00B9A2BB4119A2B67
:1006E000CF0B782BCD080319782B4D08C900972B19
:1006F0004608D4004708D5005108D600D701D221BA
:100700005C08D3005308C9004908093C03188B2B27
:100710003730C9078D2B3030C9074608D500470848
:10072000D600D2013F225B08C6005C08C700CF0894
:100730000319B41583133A18831739084A0784003C
:1007400049088000612B4E08CA07902A83133A1883
:10075000831739084A078400003080000800CC0164
:10076000CA0183133C1883173B0884004A08CA0A4D
:1007700084070008CB00CB080319EF2C4B08253A5F
:10078000031DD12B83133C1883173B0884004A08B0
:10079000CA0A84070008CB00CD004D08253A031D86
:1007A000DC2B83133A188317390884004C08CC0AD1
:1007B00084074B088000B12BCF0134112030CE00CC
:1007C0004B08003A0319EF2C303A0319F12B103A79
:1007D0000319F42B0B3A0319F72B063A0319FA2BDA
:1007E000062C3030CE00FB2B2030CF00FB2B2B30E3
:1007F000CF00FB2B341583133C1883173B08840070
:100800004A08CA0A84070008CB00E02BD001303028
:100810004B02031C282C4B08393C031C282C500885
:10082000D7000A30D800F5215A08D0004B08D0076D
:100830003030D00283133C1883173B0884004A08E9
:10084000CA0A84070008CB00CB080319EF2C072C39
:100850004B086F3A03193C2C0B3A03193F2C083A0A
:1008600003193F2C193A03194E2C2D3A0319512C18
:100870003A3A0319542CEF2C0830D300562CC91FD8
:100880004E2C2D30CF00C609C709C809C909C60FAB
:100890004E2CC70F4E2CC80F4E2CC90A0A30D3005D
:1008A000562C1030D300562C0230D300D10146080C
:1008B000D7004708D8004808D9004908DA00D10A0B
:1008C0005708DB005808DC005908DD005A08DE0034
:1008D0005308D300D401D501D60102226508D70000
:1008E0006608D8006708D9006808DA005708580475
:1008F00059045A04FF39031D5F2CCF08031DD10A88
:10090000D2015008003C03188F2C510850020318E4
:100910008B2C5008D10051085002D200922C510863
:10092000D000D201D208031934115008CC07B411F9
:100930003419B415D108031DA02CD2080319EC2CCE
:10094000CC03B41DA92C4E08CB00D20BE32CB41160
:10095000E32CD10BB12CCF080319B12C4F08CB00DD
:10096000E02C4608D8004708D9004808DA004908B2
:10097000DB005308DC00DD01DE01DF0195216608A4
:10098000D7005708CB004B08093C0318CA2C373056
:10099000CB07CC2C3030CB074608DB004708DC0007
:1009A0004808DD004908DE00D401D501D601022245
:1009B0006508C6006608C7006708C8006808C9005F
:1009C000D1080319B41583133A18831739084C0753
:1009D00084004B0880009A2C5008CC07B12B83135D
:1009E0003A18831739084C0784000030800008004B
:1009F000831203139F171F170F300317A50003134C
:100A00009F161F169F151F159F101F1483169F17E3
:100A10009F121F12031789160313861683129F1045
:100A20000C1383160C17080083160317890188011D
:100A3000FF300313850086008700151495141515E3
:100A40009515151295121513951381138E12051015
:100A500083120510831685108312851083160511E5
:100A6000831205110800BD01CC01CD01CE01CF01DB
:100A7000BD1A0800441C4A2D3908CC073A0803184F
:100A80003A0FCD073B0803183B0FCE073C0803186D
:100A90003C0FCF070310C70CC60CC50CC40C0310C9
:100AA000B90DBA0DBB0DBC0DBD0A382DDA013230BF
:100AB0005A020318080083133A18831739085A0793
:100AC00084008008031D682D2030DB0062220800AE
:100AD00083133A18831739085A0784000008DB008B
:100AE0006222DA0A572D0D3083120317DB006222CF
:100AF0000A30DB0062220800831203138617831674
:100B0000061786130800831203138613831606172D
:100B1000861708008B01831603138C010F178F169D
:100B20000F160F1483120317B901831603138F19BD
:100B30009C2D83120317B90A83120317B801831679
:100B400003130F1DA62D83120317B80A8312031770
:100B5000BB01B808031DB908031DBB0ABA018316FF
:100B600003138F18B62D83120317BA0A83120317C3
:100B7000A901BA08031DBB08031DA90AA908031986
:100B8000922DB701143037020318D62D8313C830C5
:100B9000840037088407003080008313DC30840031
:100BA0003708840700308000B70AC22DB60128300C
:100BB00036020318EB2D8313523084003608840765
:100BC000003080008313A030840036088407003092
:100BD0008000B60AD72D1425F8248C1183129412A4
:100BE00083168517831285178316851383121308BE
:100BF0000317B600F030B700031394130317370838
:100C000003139300941F062E851EFC2D941F192E8E
:100C100004300317B8003803031D132E0130831668
:100C20000313DB00192E380883160313DB04831229
:100C300005148316941314171410831294131413A9
:100C40009416141694111415941014108316851606
:100C500003170812031387120716871583128C11C6
:100C600083168C15013083120317B9003903031D55
:100C70003E2E013083160313DB00442E3908831601
:100C80000313DB04831205148312901590141015BE
:100C9000101410131012901283160C140B178B17CC
:100CA000831205150317B401B5010A303402350863
:100CB00003185C2E03195E2EB51F702E03138514C6
:100CC000051496300317B7001C2003138510051078
:100CD00096300317B7001C20B40A0319B50A552E25
:100CE0002A10AA102A11AA112A12AA122A13AA1328
:100CF000AB01AC0183160313CF01D001D101D201A6
:100D000083120317A701AD012E10AE102E11AF01F3
:100D1000B001B1010130B200B30102300317260265
:100D2000031C942E3415952E3411AE113419AE15C2
:100D3000AE1DC72FB208031DC72F25080F3A031D8C
:100D40006F2F03131E0A031DA62E6F2F0317B50165
:100D500003131E080317B600831603131E0883121D
:100D60000317B5041008DB001108DC001208DD00D1
:100D70001308DE003508D3003608D400D501D601AB
:100D800002226508B7006608B8003808113C031D48
:100D9000CB2E3708943C031C6F2F37089B00380874
:100DA0009C001C08BF008313523084002308840772
:100DB0003F0880008313A0308400230884071B08A9
:100DC0008000A30A283023020318A301283024023C
:100DD000031CA40AB901BA01BB01BC01BD01BE01DB
:100DE00024083D023E080318252F031D252F8313D9
:100DF000A03084003D0884070008CC0083135230E3
:100E000084003D088407C4010008C500C601C7016D
:100E1000CD01CE01CF014C08C4044D08C5044E08D5
:100E2000C6044F08C7044408B90745080318450F0E
:100E3000BA0746080318460FBB0747080318470FB1
:100E4000BC07BD0A0319BE0AF02E3908DB003A08B8
:100E5000DC003B08DD003C08DE002408D300D401A0
:100E6000D501D60102226508990066089A0005306E
:100E70001E02031D3D2FDC301D020318442F6B3072
:100E8000990703189A0A482FBF30990703189A0A3E
:100E90003411831603138C1D502F8312031734153E
:100EA000831603138C11831203171A08D0005008FD
:100EB00083160313CC008312031719088316031338
:100EC000CD0083120317341D682F831603138C156E
:100ED0008312031734196F2F831603138C11831297
:100EE000031725080D3A031DB22FB50103131E0881
:100EF0000317B600831603131E0883120317B504E5
:100F00003508B9003608BA00BB01BC011B08C40093
:100F10001C08C500C601C70133254C08DB004D087D
:100F2000DC004E08DD004F08DE00FF30D300033048
:100F3000D400D501D60102226508B7006608B800C2
:100F40003808113C031DA62F3708943C031CAC2F16
:100F500037089D0038089E00831603134F0883123C
:100F60000317B1000130B20025080F3A031DC02F4E
:100F70000D30A50003139F161F169F111F15C72FB5
:100F80000F30A50003139F161F169F151F150C3059
:100F900003171C02031DCE2FE4301B020318F12F90
:100FA00005301E02031DD62FDC301D020318F12F61
:100FB000A80134113419DF2F03130510E42FA808FA
:100FC0000319E42F03130514031734113419EB2FFD
:100FD00003138510F32FA8080319F32F03138514A7
:100FE000F32F0130A800053003171E02031DFA2F4E
:100FF000DC301D020318FE2FAE16FF2FAE122E128C
:10100000AE1A2E168A152E1E1128FF303002031D2F
:101010000B28FF302F0203181328AF0A0319B00A58
:101020001328AF01B0013008013C031D19282F0817
:10103000903C03181D28AE171E28AE132E13AE1BAE
:101040002E1700302E1B013A2E19013AFF390319D1
:101050002B28B4142C28B4103410B41834142E11C6
:101060002E1B2E150313061F56288A117C2583126A
:1010700003178A152E1F47284F30BB004630BC008F
:10108000BD00BE010130BA003B30B90052284F30DC
:10109000BF004E30C000C1010130C2003F30B90076
:1010A0004208BA008A1156258A1558288A118325C4
:1010B000831203178A15341CD42934113419632878
:1010C000031305106828A8080319682803130514DA
:1010D0000317341134196F28031385107428A808D6
:1010E000031974280313851403172E1FEE283415D3
:1010F00034197D28031305108228A80803198228B3
:1011000003130514FA300317B7008A111C20341199
:101110008A1534198E28031305109328A80803197B
:10112000932803130514FA300317B7008A111C2003
:1011300034158A1534199F2803130510A428A8080C
:101140000319A42803130514FA300317B7008A11F2
:101150001C202030C300C700CD004530BB006430E8
:10116000D0006530BE00CB00D1006730C2006930CE
:10117000C0006C30C4006D30CE006E30BC00C100C9
:101180006F30C500C900CF007030C8007230BF009A
:10119000CC007430BD007730C600CA00D2010130E7
:1011A000BA003B30B90056257325831603138C1102
:1011B00083129412831685178716051583128510DE
:1011C000031734118A153419E82803130510D4299C
:1011D000A8080319D42903130514D429B501B601AD
:1011E0000A30350236080318F7280319F928B61F04
:1011F0001F2934113419FF28031305100429A808E6
:10120000031904290313051432300317B7008A1198
:101210001C2034158A1534191029031305101529BB
:10122000A808031915290313051432300317B70052
:101230008A111C20B50A0319B60A8A15F028AB01D9
:101240008A11732573252330BB00BC00BD00BE008E
:10125000BF00C000C100C200C300C400C500C6007A
:10126000C700C800C900CA00CB00CC00CD00CE002A
:10127000CF00D000D100D200D300D400D500D600DA
:10128000D700D800D9010130BA003B30B90056254B
:1012900073252030C1004130BB006330BC00643096
:1012A000C4006530C000C5006930BE006D30C200AA
:1012B0006F30C3007430BD007630BF00C60101300E
:1012C000BA003B30B90056251708B9001808BA0013
:1012D00056257325831603138C11831294128316DB
:1012E0008517831285178316851383121308031736
:1012F000B500F030B6000313941303173608031338
:1013000093008A15941F8629851E7B29941F99298D
:1013100004300317B7003703031D932901308316E8
:101320000313DB009929370883160313DB048312A8
:1013300005148316941314171410831294131413A2
:1013400094161416941114159410141083168516FF
:1013500003170812031387120716871583128C11BF
:1013600083168C15013083120317B8003803031D50
:10137000BE29013083160313DB00C4293808831605
:101380000313DB048312051483160511831205155C
:10139000031734113419CF2903130510D429A808D1
:1013A0000319D429031305140317B2080319E529F7
:1013B000831603134F088312031731060319E52917
:1013C000A60103139F140317B2012708330603195C
:1013D000102A2D08003C031CAD032E1C102A3415C6
:1013E0003419F52903130510FA29A8080319FA2955
:1013F000031305140A300317B7008A111C20341197
:101400008A153419062A031305100B2AA808031994
:101410000B2A0313051414300317B7008A111C207C
:101420008A152E1F232A2E18232A05302702031C73
:10143000232AA701031305140A300317B7008A11E2
:101440001C200313051003172708B3008A152E1F4D
:101450005B2A0313061F2D2A2F2A8619322A031707
:10146000B415342A0317B4113411B41934153419CE
:101470003C2A03130510412AA8080319412A031323
:10148000051403130618482A78300317AD002E14EC
:10149000031386184F2A78300317AD00AE140313D8
:1014A000061D562A0317AD08031D992B0317AD011E
:1014B000AE102E10992B0313061F612A0317B614C2
:1014C000632A0317B6103610B618361436186B2A6E
:1014D00003130510702AA8080319702A03130514B2
:1014E000031734110313861D772A031734150317C6
:1014F000B4110313061C7E2A0317B4150317341204
:101500000313861C852A031734160317B41203131A
:10151000061D8C2A0317B4160317B701B610341929
:10152000B61436112A1A3615B6112A18B615003017
:10153000B619013AB618013AFF39031DB42A003032
:10154000361DA32A013AB618013AFF390319B02A09
:10155000B618B02A8313C830840037088407800A7D
:101560003610B6183614B72A3610361936142A1221
:1015700036182A160130B700B610B419B614361151
:10158000AA1A3615B611AA18B6150030B619013ABE
:10159000B618013AFF39031DE22A0030361DD12A60
:1015A000013AB618013AFF390319DE2AB618DE2AC5
:1015B0008313C830840037088407800A3610B618B1
:1015C0003614E52A361036193614AA123618AA1619
:1015D0000230B700B610341AB61436112A1B36156D
:1015E000B6112A19B6150030B619013AB618013AE3
:1015F000FF39031D102B0030361DFF2A013AB618A3
:10160000013AFF3903190C2BB6180C2B8313C83081
:10161000840037088407800A3610B6183614132B56
:101620003610361936142A1336182A170330B70025
:10163000B610B41AB6143611AA1B3615B611AA196B
:10164000B6150030B619013AB618013AFF39031D34
:101650003E2B0030361D2D2B013AB618013AFF39CA
:1016600003193A2BB6183A2B8313C8308400370875
:101670008407800A3610B6183614412B36103619F6
:101680003614AA133618AA17B5018316031348088F
:1016900083120317B5078316031349088312031730
:1016A000B507831603134A0883120317B507831679
:1016B00003134B0883120317B507B5080319622BF0
:1016C0003610632B3614361C672B031305150317CE
:1016D00036186C2B031305110317350883160313F3
:1016E000CE00831203172A1034192A14AA10B41931
:1016F000AA142A11341A2A15AA11B41AAA152C08E8
:101700002106031D852BB417862BB4133413B41B89
:1017100034172108AC00341F922BFF302B02031C1E
:10172000AB0A932BAB012B08283C0318992B03130E
:1017300085100313061F812D00300317BA002030D7
:10174000B9006230BD006130BE007430BF00C0001F
:101750002030C1002530C2007530C300C401013003
:10176000BC003D30BB001B08C6001C08C7008A1126
:101770008E220030BA002030B90056250030BA0061
:101780002030B9002830BD006130BE006730BF0096
:101790007630C0002030C1002530C2007530C30053
:1017A0002930C400C5010130BC003D30BB00190820
:1017B000C6001A08C7008E220030BA002030B900D7
:1017C00056250030BA002030B9002030C000253046
:1017D000C1003330BD00BF005630BE007530C200BE
:1017E000C3010130BC003D30BB001D08C6001E080F
:1017F000C7008E220030BA002030B9005625533081
:10180000BB005430BC004D30BD004230BE00BF01B3
:101810000130BA003B30B90056250030BA00203004
:10182000B9002530BD007530BE00BF010130BC00DD
:101830003D30BB0083160313480883120317C6000C
:10184000C7018E220030BA002030B9005625003082
:10185000BA002030B9002530BD007530BE00BF0190
:101860000130BC003D30BB008316031349088312CE
:101870000317C600C7018E220030BA002030B9001D
:1018800056250030BA002030B9002530BD00753033
:10189000BE00BF010130BC003D30BB008316031306
:1018A0004A0883120317C600C7018E220030BA000F
:1018B0002030B90056250030BA002030B90025305C
:1018C000BD007530BE00BF010130BC003D30BB0023
:1018D000831603134B0883120317C600C7018E2219
:1018E0000030BA002030B90056252030BB00BC01C2
:1018F0000130BA003B30B90056250030BA00203024
:10190000B9002530BD007530BE00BF010130BC00FC
:101910003D30BB00C701C60103138A15861D922CFA
:101920000317C60A03178A118E220030BA0020302E
:10193000B90056250030BA002030B9002530BD006E
:101940007530BE00BF010130BC003D30BB00C70197
:10195000C60103138A15061CAF2C0317C60A03170A
:101960008A118E220030BA002030B900562500308E
:10197000BA002030B9002530BD007530BE00BF016F
:101980000130BC003D30BB00C701C60103138A15FE
:10199000861CCC2C0317C60A03178A118E2200302E
:1019A000BA002030B90056250030BA002030B90006
:1019B0002530BD007530BE00BF010130BC003D3098
:1019C000BB00C701C60103138A15061DE92C0317C6
:1019D000C60A03178A118E220030BA002030B900DF
:1019E00056252030BB00BC010130BA003B30B900A5
:1019F00056258A152E1C092D3230BB007330BC00D1
:101A0000BD010130BA003B30B9008A1156258A1554
:101A1000162D3130BB003030BC007330BD00BE012C
:101A20000130BA003B30B9008A11562583160313E2
:101A30004F0883120317B500B601B701B80183162A
:101A40000313500883120317BA00BB01BC01C00185
:101A5000B9013908B5043A08B6043B08B7043C0894
:101A6000B80483160313510883120317BB00BC018B
:101A7000BF01C001B901BA013908B5043A08B6047A
:101A80003B08B7043C08B8048316031352088312BA
:101A90000317BC00BE01BF01C001B901BA01BB01FF
:101AA0003908B5043A08B6043B08B7043C08B80442
:101AB0000030BA002030B9007430BD006930BE007B
:101AC0006330BF006B30C0007330C1002030C200F3
:101AD0002530C3006C30C400C5010130BC003D306E
:101AE000BB003508C6003608C7003708C8003808EC
:101AF000C9008A11AF230030BA002030B900562542
:101B0000732503178A152E1FB32D02302602031CDE
:101B10008B2DB4158C2DB4113411B4193415341D1A
:101B2000962DB208031D962D8A118D2EB411B4196D
:101B30009C2D03138510A12DA8080319A12D0313B3
:101B4000851463000317B411AE18B415B419AC2D85
:101B5000031385108A118D2EA8080319B12D0313C4
:101B600085148A118D2E03138A11061B8D2E1930B0
:101B70000317B7001C208D2E3130FA002E30FB00E9
:101B80003130FC00FD010030FE007A308312031773
:101B900097007E08980014309F00A001A101013039
:101BA000A200A301A40199019A019B019C019D013E
:101BB0009E01B730900021309100093092009301CE
:101BC000A501A601A7010130A8008A110A128A2DD9
:101BD0008A1130201C217F210317160E8400150E58
:0C1BE0008A00140E8300FF0E7F0E090027
:02400E00D424B8
:02401000FF3F70
:00000001FF
