:040000008A15632AD0
:08000800FF00030E8312031731
:100010009C000A0E9D00040E9E008A150A12942A66
:10002000E108031D142808000430FF3E031D1528B5
:100030000000E10B14280800B808031D2028080060
:10004000F9300000000000000000FF3E031D2128E1
:1000500000000000000000000000B80B202808008D
:10006000E901EA01EB01EC01E301E401E501E6014C
:10007000E70120306705E800E808031D08000310C9
:10008000E30DE40DE50DE60DDB0DDC0DDD0DDE0D04
:10009000E90DEA0DEB0DEC0D62086C02031D5A2808
:1000A00061086B02031D5A2860086A02031D5A2862
:1000B0005F086902031C6B285F08E9026008031CE3
:1000C000600FEA026108031C610FEB026208031C67
:1000D000620FEC026314E70A3928E201E301DE0152
:1000E000DF01E00110306005E100E108031D0800B8
:1000F0000310DE0DDF0DDA0DDB0DE20DE30D5D0803
:100100006302031D85285C086202031C8E285C08BC
:10011000E2025D08031CE303E3025E14E00A7228B6
:10012000DC01DD01DC1908005B1C98285A08DD079A
:10013000DB0C0310DA0DDC0A9228E201E301E40192
:10014000E501E801E901EA01EB01E601203066057D
:10015000E700E708031D08000310E80DE90DEA0DAC
:10016000EB0DDE0DDF0DE00DE10DE20DE30DE40D15
:10017000E50D59086502031DC72858086402031DD0
:10018000C72857086302031DC72856086202031CCC
:10019000D8285608E2025708031C570FE3025808F4
:1001A000031C580FE4025908031C590FE502681498
:1001B000E60AA628DD01DE01E101E201DF011030DF
:1001C0005F05E000E008031D08000310E10DE20DEB
:1001D000DB0DDC0DDD0DDE0D58085E02031DF2287F
:1001E00057085D02031CFB285708DD025808031C52
:1001F000DE03DE026114DF0ADF28031386132930D1
:100200000317E1001020DF0108305F0203182229E4
:100210005E08E0005F08E100031912290310E00CFA
:10022000E1030C290130E0056003031D1A290313C3
:1002300086171C290313861329300317E1001020A9
:10024000DF0A04290313861729300317E100102061
:100250000800D001CE0183133F1883173E088400A5
:100260004E08CE0A84070008CF00CF080319412AA0
:100270004F08253A031D4B2983133F1883173E0867
:1002800084004E08CE0A84070008CF00D100510830
:10029000253A031D562983133D1883173C08840013
:1002A0005008D00A84074F0880002B29D301B612CA
:1002B0002030D2004F08003A0319412A303A03197E
:1002C0006B29103A03196E290B3A03197129063A62
:1002D0000319742980293030D20075292030D300C9
:1002E00075292B30D3007529B61683133F18831751
:1002F0003E0884004E08CE0A84070008CF005A2921
:10030000D40130304F02031CA2294F08393C031C92
:10031000A2295408DA000A30DB0090205D08D400DE
:100320004F08D4073030D40283133F1883173E0898
:1003300084004E08CE0A84070008CF00CF080319B6
:10034000412A81294F086F3A0319B3290B3A03193F
:10035000B629113A0319BF292D3A0319C2293A3A8D
:100360000319C529412A0830D700C729CD1FBF2945
:100370002D30D300CC09CD09CC0A0319CD0A0A309F
:10038000D700C7291030D700C7290230D700D501C0
:100390004C08D9004D08DA00D50A5908DB005A0884
:1003A000DC005708D700D801DA206108D9006208BC
:1003B000DA00D908031DCC29DA08031DCC29D3089B
:1003C000031DD50AD6015408003C0318F12955082D
:1003D00054020318ED295408D50055085402D600DC
:1003E000F4295508D400D601D6080319B6125408CA
:1003F000D0073613B61A3617D508031D022AD608B9
:1004000003193E2AD003361F0B2A5208CF00D60B01
:10041000352A3613352AD50B132AD3080319132A84
:100420005308CF00322A4C08DA004D08DB00570889
:10043000DC00DD016D206208D9005908CF004F08AB
:10044000093C0318262A3730CF07282A3030CF0737
:100450004C08DB004D08DC00D801DA206108CC0034
:100460006208CD00D5080319361783133D1883178A
:100470003C08500784004F088000FC295408D0072E
:100480002B2983133D1883173C0850078400003044
:1004900080000800CF01CD0183133F1883173E0869
:1004A00084004D08CD0A84070008CE00CE08031949
:1004B0008A2B4E08253A031D6C2A83133F18831795
:1004C0003E0884004D08CD0A84070008CE00D00005
:1004D0005008253A031D772A83133D1883173C08DB
:1004E00084004F08CF0A84074E0880004C2AD201AE
:1004F000B6122030D1004E08003A03198A2B303A48
:1005000003198C2A103A03198F2A0B3A0319922ADD
:10051000063A0319952AA12A3030D100962A2030B4
:10052000D200962A2B30D200962AB61683133F1893
:1005300083173E0884004D08CD0A84070008CE00CA
:100540007B2AD30130304E02031CC32A4E08393CAB
:10055000031CC32A5308DA000A30DB0090205D0830
:10056000D3004E08D3073030D30283133F188317CC
:100570003E0884004D08CD0A84070008CE00CE084E
:1005800003198A2BA22A4E086F3A0319D72A0B3A6D
:100590000319DA2A083A0319DA2A193A0319E92A57
:1005A0002D3A0319EC2A3A3A0319EF2A8A2B08301C
:1005B000D600F12ACC1FE92A2D30D200C909CA0978
:1005C000CB09CC09C90FE92ACA0FE92ACB0FE92ABE
:1005D000CC0A0A30D600F12A1030D600F12A0230B7
:1005E000D600D4014908DA004A08DB004B08DC00D9
:1005F0004C08DD00D40A5A08DE005B08DF005C0806
:10060000E0005D08E1005608D600D701D801D90105
:100610009D206808DA006908DB006A08DC006B08C6
:10062000DD005A085B045C045D04FF39031DFA2AEF
:10063000D208031DD40AD5015308003C03182A2B05
:10064000540853020318262B5308D40054085302AD
:10065000D5002D2B5408D300D501D5080319B612A7
:100660005308CF073613B61A3617D408031D3B2B91
:10067000D5080319872BCF03361F442B5108CE0012
:10068000D50B7E2B36137E2BD40B4C2BD2080319A3
:100690004C2B5208CE007B2B4908DB004A08DC00BB
:1006A0004B08DD004C08DE005608DF00E001E101E8
:1006B000E20130206908DA005A08CE004E08093CF1
:1006C0000318652B3730CE07672B3030CE0749082B
:1006D000DE004A08DF004B08E0004C08E100D701CB
:1006E000D801D9019D206808C9006908CA006A08B4
:1006F000CB006B08CC00D4080319361783133D18C0
:1007000083173C084F0784004E088000352B5308A0
:10071000CF074C2A83133D1883173C084F078400EA
:10072000003080000800831203139F171F170F303B
:100730000317A80003139F161F169F151F159F1060
:100740001F1483169F179F121F1203178916031376
:10075000861683129F100C13080083160317890155
:100760008801FF300313850086008700950015136C
:1007700081138E120510851005110800C401C501F2
:10078000C601C701C801C41A0800401CD52B3C088B
:10079000C5073D0803183D0FC6073E0803183E0F66
:1007A000C7073F0803183F0FC8070310C30CC20C4C
:1007B000C10CC00C0310BC0DBD0DBE0DBF0DC40A95
:1007C000C32BDD0132305D020318080083133D188E
:1007D00083173C085D0784008008031DF32B20303D
:1007E000DE00FD20080083133D1883173C085D07D9
:1007F00084000008DE00FD20DD0AE22B0D308312AC
:100800000317DE00FD200A30DE00FD200800831201
:100810000313861783160617861308008B018316A9
:1008200003138C010F178F160F1601308312031755
:10083000A90003131016901683160F1483120317C2
:10084000B901831603138F19282C83120317B90AD1
:1008500083120317B801831603130F1D322C831262
:100860000317B80A83120317BB01B808031DB908A0
:10087000031DBB0ABA01831603138F18422C83127F
:100880000317BA0A83120317AF01BA08031DBB0886
:10089000031DAF0AAF0803191E2CB701143037022D
:1008A0000318622C8313C830840037088407003093
:1008B00080008313DC308400370884070030800018
:1008C000B70A4E2CB601283036020318772C831352
:1008D0005230840036088407003080008313A03033
:1008E00084003608840700308000B60A632CAD23EC
:1008F000932383168C118312941213080317B600E6
:10090000F030B70003139413031737080313930051
:10091000941F8C2C851E822C941F9F2C043003174F
:10092000B8003803031D992C013083160313DB0034
:100930009F2C380883160313DB04831205148316D7
:10094000941314171410831294131413941614167A
:100950009411141594101410831685160317081299
:10096000031387120716871583128C1183168C15B3
:10097000013083120317B9003903031DC42C013061
:1009800083160313DB00CA2C390883160313DB0418
:1009900083120514072483129010101510141013DD
:1009A00083160C140B178B17831205158514051469
:1009B000FA300317B8001C20031385100510FA3015
:1009C0000317B8001C2003139F1403173010B01036
:1009D0003011B0113012B0123013B013B101B201A6
:1009E00083160313CF01D001D101D2018312031763
:1009F000A301A40183160313071183120711FA3010
:100A00000317B8001C20FA30B8001C20FA30B800D8
:100A10001C20FA30B8001C203310B401B50100309E
:100A20001702031D1D2D00301602031D1D2D05305C
:100A30001502031D1D2DDC3014020318212D331562
:100A4000222D3311B3103319B314B31C332DFF30DF
:100A50003502031D2D2DFF3034020318352DB40A45
:100A60000319B50A352DB401B5013508013C031D44
:100A70003B2D3408903C0318432D0313061B432DD4
:100A800003173316452D03173312B311331AB31559
:100A90000030B319013A3318013AFF390319522DC6
:100AA0003317532D3313B312331BB3163310B3194B
:100AB0003314B31E6F2EB31DAF2D03130514FA307C
:100AC0000317B8001C2003130510FA300317B800F1
:100AD0001C2003130514FA300317B8001C20203023
:100AE000C600CA00D0004530BE006430D300653077
:100AF000C100CE00D4006730C5006930C3006C303F
:100B0000C7006D30D1006E30BF00C4006F30C80028
:100B1000CC00D2007030CB007230C200CF007430F5
:100B2000C0007730C900CD00D5010130BD003E3096
:100B3000BC00E123FE23831603138C11831294124D
:100B400083168716051583128510051001300317CB
:100B5000AE002D03031DA92D031305106F2EAE014A
:100B6000AD08031DB02DB601B7010A3036023708B3
:100B70000318BC2D0319BE2DB71FCE2D031305106E
:100B800032300317B8001C2003130514323003174A
:100B9000B8001C20B60A0319B70AB52DB101FE230F
:100BA000FE232330BE00BF00C000C100C200C3004E
:100BB000C400C500C600C700C800C900CA00CB00F9
:100BC000CC00CD00CE00CF00D000D100D200D300A9
:100BD000D400D500D600D700D800D900DA00DB0059
:100BE000DC010130BD003E30BC00E123FE2320309B
:100BF000C4004130BE006330BF006430C7006530C0
:100C0000C300C8006930C1006D30C5006F30C60038
:100C10007430C0007630C200C9010130BD003E30E2
:100C2000BC00E1231F08BC002008BD00E123FE2317
:100C3000831603138C118312941213080317B60042
:100C4000F030B7000313941303173708031393000E
:100C5000941F2C2E851E222E941F3F2E0430031726
:100C6000B8003803031D392E013083160313DB004F
:100C70003F2E380883160313DB04831205148316F2
:100C80009413141714108312941314139416141637
:100C90009411141594101410831685160317081256
:100CA000031387120716871583128C1183168C1570
:100CB000013083120317B9003903031D642E01307C
:100CC00083160313DB006A2E390883160313DB0433
:100CD00083120514831605118312051505100317D9
:100CE000B31D972EB60103138619782E0317B60A83
:100CF0000317361C7D2E0313051403173618822E96
:100D00000313051003172308263C031824088A152B
:100D100003193929A301A401031305140F30031784
:100D2000E1008A111020031305108A153929B80132
:100D30000313061F9D2E0317B80A0317381CA22E93
:100D40000313051403173818A72E031305100317F0
:100D5000B3130313861DAE2E0317B31703173610F4
:100D60000313061CB52E031736140317B61003130E
:100D7000861CBC2E0317B614031736110313061D69
:100D8000C32E031736150317B8013613B31B3617D6
:100D9000B613301AB6173910301839140030391814
:100DA000013A361B013AFF39031DEB2E0030B61F06
:100DB000DA2E013A361B013AFF390319E72E361BAA
:100DC000E72E8313C830840038088407800AB612DF
:100DD000361BB616EE2EB612B61BB6163012B61A63
:100DE00030160130B800361336183617B613B01A5D
:100DF000B6173910B018391400303918013A361BBB
:100E0000013AFF39031D192F0030B61F082F013A90
:100E1000361B013AFF390319152F361B152F831383
:100E2000C830840038088407800AB612361BB6160C
:100E30001C2FB612B61BB616B012B61AB016023078
:100E4000B8003613B6183617B613301BB61739105C
:100E50003019391400303918013A361B013AFF397C
:100E6000031D472F0030B61F362F013A361B013ABB
:100E7000FF390319432F361B432F8313C8308400D7
:100E800038088407800AB612361BB6164A2FB612E7
:100E9000B61BB6163013B61A30170330B800361327
:100EA00036193617B613B01BB6173910B0193914E6
:100EB00000303918013A361B013AFF39031D752FEE
:100EC0000030B61F642F013A361B013AFF3903196F
:100ED000712F361B712F8313C830840038088407A4
:100EE000800AB612361BB616782FB612B61BB61687
:100EF000B013B61AB017B70183160313480883124C
:100F00000317B70783160313490883120317B7079C
:100F1000831603134A0883120317B70783160313B4
:100F20004B0883120317B707B7080319992FB61296
:100F30009A2FB616B61E9E2F031305150317B61A61
:100F4000A32F031305110317370883160313CE00CD
:100F5000831203173010B31B3014B0103618B014BE
:100F60003011B6183015B0113619B01532082C06EC
:100F7000031DBC2F3616BD2F3612B611361AB61504
:100F80002C08B200B61DC92FFF303102031CB10A74
:100F9000CA2FB1013108283C0318D02F0313851044
:100FA00003138A15061F392900300317BD002030AE
:100FB000BC006230C0006130C1007430C200C300A8
:100FC0002030C4002530C5006430C600C7010130A0
:100FD000BF004030BE001008CC001108CD008A11BF
:100FE00029210030BD002030BC00E1230030BD00CD
:100FF0002030BC002830C0006130C1006730C20022
:101000007630C3002030C4002530C5006430C600EF
:101010002930C700C8010130BF004030BE002108A0
:10102000CC002208CD0029210030BD002030BC00BA
:10103000E1230030BD002030BC002030C800253046
:10104000C9003330C500C7005630C6005F30C40049
:101050006430CA006F30C1007430C3007530C20004
:101060007630C000CB010130BF004030BE00140814
:10107000CC001508CD0029210030BD002030BC0077
:10108000E1230030BD002030BC007330C000683068
:10109000C1007530C2007430C300C4006530C500A3
:1010A0007230C6002030C7002530C8006430C90047
:1010B000CA010130BF004030BE0083160313480848
:1010C00083120317CC00CD0129210030BD00203050
:1010D000BC00E1230030BD002030BC007430C000F3
:1010E0006F30C1007030C2002030C3002530C40012
:1010F0006430C500C6010130BF004030BE00831619
:101100000313490883120317CC00CD0129210030B5
:10111000BD002030BC00E1230030BD002030BC0009
:101120002030C3002530C4006430C200C5006930DF
:10113000C1006D30C000C6010130BF004030BE00AC
:10114000831603134A0883120317CC00CD0129210B
:101150000030BD002030BC00E1230030BD00203055
:10116000BC006230C0006F30C1007430C20020305B
:10117000C3002530C4006430C500C6010130BF0083
:101180004030BE00831603134B0883120317CC00B4
:10119000CD0129210030BD002030BC00E1238316A1
:1011A00003134F0883120317B800B901BA01BB013A
:1011B00083160313500883120317BD00BE01BF013D
:1011C000C301BC013C08B8043D08B9043E08BA0498
:1011D0003F08BB0483160313510883120317BE0094
:1011E000BF01C201C301BC01BD013C08B8043D08F8
:1011F000B9043E08BA043F08BB048316031352081F
:1012000083120317BF00C101C201C301BC01BD01AC
:10121000BE013C08B8043D08B9043E08BA043F08C2
:10122000BB040030BD002030BC007430C000693009
:10123000C1006330C2006B30C3007330C400203083
:10124000C5002530C6006C30C700C8010130BF00A2
:101250004030BE003808C9003908CA003A08CB003F
:101260003B08CC004A220030BD002030BC00E12306
:10127000FE2303138A150C1F5A2A83160C1B5A2AA5
:1012800083120C13031728080F3A031D022AB60114
:1012900003131E080317B700831603131E088312D7
:1012A0000317B6041808DE001908DF001A08E0006A
:1012B0001B08E1003608D6003708D700D801D9014D
:1012C0008A119D206808BE006908BF006A08C00036
:1012D0006B08C1003E0890003F0891004008920052
:1012E000410893001108C20083135230840026087D
:1012F0008407420880008313A030840026088407F6
:1013000010088000A60A283026020318A6012830FB
:101310002702031CA70AB801B901BA01BB01BC012D
:10132000BD0127083C023D088A150318C729031D83
:10133000C7298313A03084003C0884070008C70035
:101340008313523084003C088407C3010008C400A2
:10135000C501C601C801C901CA014708C30448083C
:10136000C4044908C5044A08C6044308B807440829
:101370000318440FB90745080318450FBA07460874
:101380000318460FBB07BC0A0319BD0A9129380888
:10139000DE003908DF003A08E0003B08E1002708DA
:1013A000D600D701D801D9018A119D206808A10073
:1013B0006908A200B313831603138A158C1DE32951
:1013C00083120317B317831603138C1183120317A9
:1013D0002208CB004B0883160313CC00831203179B
:1013E000210883160313CD0083120317B31FFB29B3
:1013F000831603138C1583120317B31B022A83165B
:1014000003138C118312031728080D3A031D422A77
:10141000B60103131E080317B700831603131E0833
:1014200083120317B6043608BC003708BD00BE019E
:10143000BF011008C0001108C1001208C200130843
:10144000C3008A11BE234508DE004608DF004708B6
:10145000E0004808E100FF30D6000330D700D80193
:10146000D9019D206808B8006908B9006A08BA0067
:101470006B08BB0038089400390895003A089600BC
:101480003B08970028080F3A8A15031D4F2A0D3094
:10149000A80003139F161F169F111F15562A0F3001
:1014A000A80003139F161F169F151F1583160C17F0
:1014B00083129F14831203178A11B3190F2D193049
:1014C000B8001C200F2D3130FA002E30FB003030D8
:1014D000FC00FD010030FE007A30831203179F00EC
:1014E0007E08A0001430A500A601A701A101A20159
:1014F0009001910192019301940195019601970148
:10150000B73098002130990009309A009B01A8015A
:10151000A9010130AA00AB01AC01AD01AE01A301EC
:10152000A4018A110A120E2C831203138C1DC22BE4
:1015300013080317AC000313141FB02A141302304E
:101540000317ED006D03031DAA2A01308316031350
:10155000DB00B02A6D0883160313DB048312051425
:1015600083120317AC080319CE2A2C082B06031983
:10157000CF2A1030EE006E03031DC32A01308316FC
:101580000313DB00C92A6E0883160313DB048312DE
:101590000514831203172C08AB00CF2AAB01AB0A4A
:1015A0002C08EF0003138510831603179001910197
:1015B0008313C83084001008840700089200831247
:1015C0000313941383160317120883120313930053
:1015D000941FEC2A851EDF2A941FFE2A04308316EE
:1015E000031793001303031DF92A01300313DB00D3
:1015F000FE2A13080313DB04831205148316031752
:10160000900A83160313141C952B8313DC3084007B
:101610000317110884078312031313088000141F93
:10162000222B141302308316031794001403031D96
:101630001D2B01300313DB00222B14080313DB04E2
:1016400083120514143083160317110203182A2B72
:10165000910A392B083095001503031D332B0130F7
:101660000313DB009C2B15080313DB048312051402
:101670009C2B8313C8308400100884070008960050
:10168000831203139413831603171608831203138C
:101690009300941F4D2B851E402B941F5F2B04300D
:1016A0008316031797001703031D5A2B01300313EA
:1016B000DB005F2B17080313DB04831205141430BF
:1016C00083160317100203188B2B83126F03031D5D
:1016D0007C2B83161008133A031D7C2B01309800D5
:1016E0001803031D772B01300313DB007C2B180834
:1016F0000313DB04831205148313C830840083169C
:10170000031710088407000883120313930083163D
:101710000317900A952B8312031385148316C801AF
:10172000C901CA01CB018312051583120313851E5B
:10173000012B83161418012B831203172B08831611
:101740009900831203139413831603171908831245
:1017500003139300941FAE2B851EA12B941FC02B47
:101760000430831603179A001A03031DBB2B0130A4
:101770000313DB00C02B1A080313DB0483120514C8
:1017800083128C110C1C162C03172908ED002E084F
:101790002D060319E92B2E08AD00AD080319DD2B2A
:1017A000831603130F138F120F16083083120317BB
:1017B000A900031310129012E92B831603130F17BD
:1017C0008F160F16013083120317A900031310168A
:1017D00090160317EE016D086E020318142CFF30EB
:1017E000831603134F020318F72BCF0A0D2CCF01DA
:1017F000FF3050020318FE2BD00A0D2CD001FF3011
:1018000051020318052CD10A0D2CD101FF305202D0
:1018100003180C2CD20A0D2CD20183120317A30A31
:101820000319A40AEE0AEB2B03130C100C1F1D2C3A
:101830000C1383160C1383129F1403171E0E8400BF
:0E1840001D0E8A001C0E8300FF0E7F0E090095
:02400E00D424B8
:02401000FF3F70
:00000001FF
